:020000040000FA
:0600000063EF0BF012009B
:0610000063EF0BF012008B
:021008001200D4
:021018001200C4
:06102A000100F2160000B7
:08103000600000005600000002
:08103800D9CFE6FFE1CFD9FF9B
:10104000040EE126DE6ADD6ADECF00F0DDCF01F0BE
:10105000FD0EDBCF02F0FE0EDBCF03F00250005C92
:10106000035001581AE2020EDB6A030EDB6A020E1D
:10107000DBCF00F0030EDBCF01F0870E005C000E2B
:10108000015806E2020EDB2A030E01E3DB2AEFD74A
:10109000DF2A010E01E3DB2AD7D7040EE15C02E26E
:1010A000E16AE552E16EE552E7CFD9FF1200D9CFF0
:1010B000E6FFE1CFD9FFFE0EDB50F00B836E839687
:1010C000839483820A0EE66EE66AB6DFE552E55245
:1010D0008392FE0EDB50100DFE0EF3CFDBFFDB50D4
:1010E000F00B836E8396839483820A0EE66EE66A23
:1010F000A3DFE552E5528392E552E7CFD9FF120014
:10110000D9CFE6FFE1CFD9FFFE0EDB50F00B836EA7
:101110008386839483820A0EE66EE66A8DDFE5524B
:10112000E5528392FE0EDB50100DFE0EF3CFDBFF77
:10113000DB50F00B836E8386839483820A0EE66E07
:10114000E66A7ADFE552E5528392E552E7CFD9FFAE
:101150001200020EE66EABDFE552280EE66EA7DF48
:10116000E5520C0EE66EA3DFE552010EE66E9FDF40
:10117000E552800EE66E9BDFE552060EE66E97DFC7
:10118000E552640EE66EE66A57DFE552E55212005C
:10119000D9CFE6FFE1CFD9FFE652E10EAF6E040EE4
:1011A000B06EA40EAC6EB00EAB6E080EB86EAE5044
:1011B000DF6EAE50DF6EE552E552E7CFD9FF120089
:1011C000D9CFE6FFE1CFD9FFACA2FED7FE0EDB50B0
:1011D000AD6EE552E7CFD9FF12009EAAFED7AE5002
:1011E00000D012000F0E936E956A800E946E966872
:1011F0000F0E926E8168826A846AF19EC16EA9DFC9
:10120000C7DF800EE66E53DFE5520A0EE66EE66A31
:1012100013DFE552E5520001606B616B140E605DF7
:10122000000E61591AE2620E6025E96E000E61211E
:10123000EA6EEF50E66E64DFE552620E0001602553
:10124000E96E000E6121EA6EEF50E66EB9DFE552FD
:101250000001602B000E6123E1D7C00EE66E27DF90
:10126000E5520D0EE66EACDFE5520A0EE66EE66A5A
:10127000E3DEE552E5520001606B616B140E605DC8
:10128000000E61591AE2770E6025E96E000E6121A9
:10129000EA6EEF50E66E34DFE552770E000160250E
:1012A000E96E000E6121EA6EEF50E66E89DFE552CD
:1012B0000001602B000E6123E1D7940EE66EF7DE8D
:1012C000E5520D0EE66E7CDFE5520A0EE66EE66A2A
:1012D000B3DEE552E5520001606B616B140E605D98
:1012E000000E61591AE28C0E6025E96E000E612134
:1012F000EA6EEF50E66E04DFE5528C0E00016025C9
:10130000E96E000E6121EA6EEF50E66E59DFE5529C
:101310000001602B000E6123E1D70D0EE66E50DF59
:10132000E552D00EE66E070EE66E86DEE552E55219
:10133000D40EE66EBCDEE5520001606B616B140EEC
:10134000605D000E61591AE2A10E6025E96E000E83
:101350006121EA6EEF50E66ED3DEE552A10E000188
:101360006025E96E000E6121EA6EEF50E66E28DF1F
:10137000E5520001602B000E6123E1D70D0EE66EF1
:101380001FDFE552E00EE66E92DEE5527F0E816EC3
:10139000640EE66EE66A50DEE552E55281CFC1F09A
:1013A000640EE66EE66A48DEE552E5520F0E000175
:1013B000C115C16F0E0EC15D0CE12D0E0001606FF5
:1013C000616B60C0E6FF9CDEE55260C0E6FFF8DEC0
:1013D000E5520D0E0001C15D0CE12A0E0001606FA7
:1013E000616B60C0E6FF8CDEE55260C0E6FFE8DEC0
:1013F000E5520B0E0001C15D0CE12F0E0001606F84
:10140000616B60C0E6FF7CDEE55260C0E6FFD8DEBF
:10141000E552070E0001C15D0CE12B0E0001606F6B
:10142000616B60C0E6FF6CDEE55260C0E6FFC8DEBF
:10143000E552BF0E816E640EE66EE66AFDDDE55292
:10144000E55281CFC1F0640EE66EE66AF5DDE55245
:10145000E5520F0E0001C115C16F0E0EC15D0CE10A
:10146000390E0001606F616B60C0E6FF49DEE55236
:1014700060C0E6FFA5DEE5520D0E0001C15D0CE186
:10148000360E0001606F616B60C0E6FF39DEE55229
:1014900060C0E6FF95DEE5520B0E0001C15D0CE178
:1014A000330E0001606F616B60C0E6FF29DEE5521C
:1014B00060C0E6FF85DEE552070E0001C15D0CE16C
:1014C0003D0E0001606F616B60C0E6FF19DEE55202
:1014D00060C0E6FF75DEE552DF0E816E640EE66EDB
:1014E000E66AAADDE552E55281CFC1F0640EE66EF0
:1014F000E66AA2DDE552E5520F0E0001C115C16F8B
:101500000E0EC15D0CE1380E0001606F616B60C0B2
:10151000E6FFF6DDE55260C0E6FF52DEE5520D0E55
:101520000001C15D0CE1350E0001606F616B60C0B0
:10153000E6FFE6DDE55260C0E6FF42DEE5520B0E57
:101540000001C15D0CE1320E0001606F616B60C093
:10155000E6FFD6DDE55260C0E6FF32DEE552070E5B
:101560000001C15D0CE1300E0001606F616B60C075
:10157000E6FFC6DDE55260C0E6FF22DEE552EF0E73
:10158000816E640EE66EE66A57DDE552E55281CF64
:10159000C1F0640EE66EE66A4FDDE552E5520F0ECD
:1015A0000001C115C16F0E0EC15D0CE1370E0001C7
:1015B000606F616B60C0E6FFA3DDE55260C0E6FFCF
:1015C000FFDDE5520D0E0001C15D0CE1340E00019E
:1015D000606F616B60C0E6FF93DDE55260C0E6FFBF
:1015E000EFDDE5520B0E0001C15D0CE1310E000193
:1015F000606F616B60C0E6FF83DDE55260C0E6FFAF
:10160000DFDDE552070E0001C15D0CE1210E000196
:10161000606F616B60C0E6FF73DDE55260C0E6FF9E
:08162000CFDDE552AFD6120048
:081628002A0EF66E100EF76E9B
:10163000000EF86E00010900F550BB6F0900F5506F
:10164000BC6F03E1BB6701D03DD00900F550B66F18
:101650000900F550B76F0900F550B86F090009008F
:10166000F550E96E0900F550EA6E0900090009001D
:10167000F550B96F0900F550BA6F09000900F6CFAF
:10168000BDF0F7CFBEF0F8CFBFF0B6C0F6FFB7C0E1
:10169000F7FFB8C0F8FF0001B95302E1BA5307E001
:1016A0000900F550EE6EB907F8E2BA07F9D7BDC0E8
:1016B000F6FFBEC0F7FFBFC0F8FF0001BB07000E7A
:0616C000BC5BBFD7120065
:0A16C60013EE00F023EE00F0F86AC6
:1016D000059C14EC0BF078EC0BF0F2EC08F0FBD767
:0216E0001200F6
:0E16E20000EE00F00F0EEE6AEA62FDD7120075
:0216F0001200E6
:0E16F200000020202020205246494420424182
:101700005345442020202020002020202042414E0C
:101710004B204C4F434B455253202020200020208B
:1017200053454355524954592053595354454D201C
:101730002020004D656E75204E756D6265723A20F1
:081740002020202020202000C1
:00000001FF
